:020000040000FA
:04000000FEEFFFF020
:020000040001F9
:10FDA1000112001200000EC66E000E0401006F80E9
:10FDB1000EBE6E1200800EBE6E900E03011A6F54BD
:10FDC1000E1B6FA00E00017F6F000E7D6F120003EE
:10FDD100011A9F0F1C116E101C126E610044F41861
:10FDE100F31250196FB19E1A8F1200000E096E00A6
:10FDF1000E0A6E000E0B6E000E0C6E000E056E00EC
:10FE01000E066E000E076E000E086E1200048ED1F3
:10FE1100ECFEF0F6ECFEF0D3ECFEF0DBECFEF04A8B
:10FE2100ECFFF0D2ECFEF0000E106E0B0E0F6EE840
:10FE3100ECFEF0B1AE1FEFFFF021EFFFF01AEFFF84
:10FE4100F010EFFFF0FEEFFFF0FC0EF66EFE0EF786
:10FE51006E010EF86E01EE00F210EE00F10900F5F0
:10FE6100C4EEF4E550E150FAE1E250F8E1A10EF6FA
:10FE71006EFD0EF76E010EF86E09006100D4F313EA
:10FE8100F501EE01F10E0EEE6AE806FDE100010753
:10FE9100EFFFF000017D29D8A451EFFFF053EFFFF0
:10FEA100F055EFFFF0000E136E7D51D8A45BEFFF0C
:10FEB100F05DEFFFF05FEFFFF0010E136E1350D80E
:10FEC100B465EFFFF067EFFFF073EFFFF0000E0D89
:10FED10024D96EDA6A060EDA22DF507D6F040E0D28
:10FEE100267DEFFFF0000E0D24D96EDA6A060EDAD8
:10FEF10022DF507D6F040E0D5E1200808386898D96
:10FF0100909396999C9FA2A5A8ABAEB1B4B7BABC89
:10FF1100BFC2C4C7CACCCFD1D4D6D8DBDDDFE1E3C1
:10FF2100E5E7E9EAECEEEFF1F2F4F5F6F7F9FAFAC2
:10FF3100FBFCFDFEFEFFFFFF00000000000000FFD4
:10FF4100FFFFFEFEFDFCFBFAFAF9F7F6F5F4F2F11C
:10FF5100EFEEECEAE9E7E5E3E1DFDDDBD8D6D4D18A
:10FF6100CFCCCAC7C4C2BFBCBAB7B4B1AEABA8A5E7
:10FF7100A29F9C999693908D898683807D7A7773D1
:10FF8100706D6A6764615E5B5855524F4C494644D7
:10FF9100413E3C393634312F2C2A282523211F1D7F
:10FFA1001B1917161412110F0E0C0B0A090706065E
:10FFB100050403020201010100000000000000012C
:10FFC10001010202030405060607090A0B0C0E0FC4
:10FFD1001112141617191B1D1F212325282A2C2F36
:10FFE100313436393C3E414446494C4F5255585BB9
:0FFFF1005E6164676A6D7073777A7D25EFFFF04C
:020000040020DA
:10000000FF0FFF0FFF0FFF0FFF0FFF0FFF0FFF0F80
:10001000FF0FFF0FFF0FFF0FFF0FFF0FFF0FFF0F70
:020000040030CA
:0A0000008CFEFFFC9FFFFFFFFFFFD7
:00000001FF
