:020000040000FA
:04000000FEEFFFF020
:020000040001F9
:10FF3A00120012001200CE8E000EC66E000E0401D0
:10FF4A00006F120001EE01F10D0EEE6AE806FDE106
:10FF5A000001C1EFFFF0000E096E000E0A6E000EDE
:10FF6A000B6E000E0C6E000E056E000E066E000E75
:10FF7A00076E000E086E1200048E9DECFFF0B0ECC6
:10FF8A00FFF0A0ECFFF09FECFFF0D2ECFFF09EEC4C
:10FF9A00FFF0CAEFFFF0FEEFFFF0000E106E000E4A
:10FFAA00116E000E126E000E136EBE50200B101052
:10FFBA00BE6E150E0F6E4B0E0E6EBE0EE82EFED7DF
:10FFCA000E2EFCD70F2EFAD700D0010E1026000EE7
:10FFDA0011221222132213501210111009E1410E9C
:10FFEA00105CD8A0FBEFFFF0FDEFFFF0DAEFFFF0B7
:06FFFA001200A7EFFFF06A
:020000040020DA
:10000000FF0FFF0FFF0FFF0FFF0FFF0FFF0FFF0F80
:10001000FF0FFF0FFF0FFF0FFF0FFF0FFF0FFF0F70
:020000040030CA
:0A0000008CFEFFFC9FFFFFFFFFFFD7
:00000001FF
