:020000040000FA
:04000000FEEFFFF020
:020000040001F9
:04FEB000120012002A
:10FEB50021120C1221000EC66E000E0401006F8087
:10FEC5000EBE6E1200800EBE6E900E03011A6F54A8
:10FED5000E1B6F120003011A9F121C146E131C15C2
:10FEE5006E610050F418F31550196FB19E1A8F12F8
:10FEF50000000E096E000E0A6E000E0B6E000E0C51
:10FF05006E000E056E000E066E000E076E000E08E2
:10FF15006E1200B50EF66EFE0EF76E010EF86E014E
:10FF2500EE18F110EE05F00900F5C4EEF4E550E128
:10FF350050FAE101EE01F1110EEE6AE806FDE1006D
:10FF450001A5EFFFF0048E58ECFFF07BECFFF05DB0
:10FF5500ECFFF065ECFFF0C3ECFFF059ECFFF003AC
:10FF65000E136EE80E126E6DECFFF0B1AEBDEFFF35
:10FF7500F0BFEFFFF0B8EFFFF0AEEFFFF0FEEFFFE1
:10FF8500F021EE18F111EE12F1040EDBC4E3F4E8F2
:10FF950006FCE20F4A102AF40E0F1806E11004D8E9
:10FFA500A4D7EFFFF0D9EFFFF0FDEFFFF0000E1043
:10FFB5006E000E0F6E6100F8F217F5800E1716121F
:10FFC5000E0D24D96E050E0E20DA6EDF5017126164
:10FFD500005CF4BEF40D4A0E2A050E0D180E10D85D
:10FFE500A4F7EFFFF0F9EFFFF0FDEFFFF0000E0EC5
:0BFFF5006E000E0D6E12008CEFFFF08E
:020000040020DA
:10000000FF0FFF0FFF0FFF0FFF0FFF0FFF0FFF0F80
:10001000FF0FFF0FFF0FFF0FFF0FFF0FFF0FFF0F70
:020000040030CA
:0A0000008CFEFFFC9FFFFFFFFFFFD7
:00000001FF
